:100000000C9416210C9456210C9456210C945621D4
:100010000C9456210C9456210C9456210C94562184
:100020000C9456210C9456210C9456210C94562174
:100030000C9456210C9456210C9456210C94562164
:100040000C9456210C94CDAA0C9456210C94562154
:100050000C9456210C94C6980C9456210C945A86F4
:100060000C9456210C949C410C9492410C94562172
:100070000C9456210C9456210C9456210C94562124
:100080000C94A9320C9456210C9456210C945621B0
:100090000C9456210C9456210C9456210C94562104
:1000A0000C9456210C9456210C947B320C945621BE
:1000B0000C9456210C9456210C9456210C945621E4
:1000C0000C9456210C9456210C9456210C947233A6
:1000D0000C943C330C9456210C9456210C945621CC
:1000E0000C945621084AD73B3BCE016E84BCBFFD21
:1000F000C12F3D6C74319ABD56833DDA3D00C77FF8
:1001000011BED9E4BB4C3E916BAAAABE0000008090
:100110003F05A84CCDB2D44EB93836A9020C50B91F
:10012000918688083CA6AAAA2ABE000000803F004B
:100130000C9429440C94A2440C943D440D94DA325E
:100140000C940A450C9423F50C94AC440C94224472
:100150000C948B830C9418440D94AD040C9420F7EC
:100160000D94B5330C943A420C94BC300C94FB7A49
:100170000D94DC360D9443320C94DF330C941A7BCF
:100180000C9410340C94EE440C9432420C942C7B5E
:100190000C949A300C94C0300D94BC040D945243CE
:1001A0000D94C8040C94E8430C9469E20C94FC444C
:1001B0000D9486330C941F440C942CF50C94948469
:1001C0000C94247B0C94AFE10C9408340C947430A0
:1001D0000D940F370C943E420C94C5F50C94F17AB3
:1001E0000D9411330D94BE330D9436370C94A883BF
:1001F0000C94B3E20C9446420C94EE330C94F9E167
:100200000C9432F50C94AF840C947BF50C94304430
:100210000C9418340C94BA440C9420F50C94067B7E
:100220000C94BE300C946C850C944E450D94443364
:100230000C9444440C9404340C9447440C940942A8
:100240000C945B450C94D6440D94CE330C94287BCF
:100250000C94D4E10C945FF70C94317B0C94C9F5A9
:100260000C9460420C943BF50D9495310C941E7BDC
:100270000D949A330C9452300C943F850D94B13206
:100280000D94E4300C9476300C944D420D94A333CD
:100290000C94107B0D94C2040D94CC330C94FDE2AD
:1002A0000C94FF7A0D9400370C9433440D94C504DC
:1002B0000C9418450C9436440C9407840C94B97B28
:1002C0000C9478300C94EAF40C94ED430D94A8044B
:1002D0000C943B7C0C9426450C9491F70C9444E2CE
:1002E0000C943C7C0C9468450D94B6040C945430EA
:1002F0000C948EE20D94BF040C9429F50C942FF508
:100300000C94E2440C94B0330D94B3040C94344533
:100310000C94167B0C94367B0C942E340C94274250
:100320000C9441450C94D8E20D9427370D94B904F0
:100330000C940C340C942E420C9425440C9498305C
:100340000C9458420D94D0360C9434300C94F77AB7
:100350000C947B440C949C300D94C8330D949133D1
:100360000D94CB040C940C7B0C943A440C942D8586
:100370000D9419320D9425330C94DA410C9438F510
:100380000C941DF50D94AC330C9436340C9442420D
:100390000D94A5300D94EE320D941B370C94327BE6
:1003A0000C948F850C9435F50C9428300C94FD3307
:1003B0000C944AF70D9470430C9426F50C941C345D
:1003C0000C946DE10C94C8440C942C440C9414349B
:1003D0000C9440440C941B440D94B0040C9436428D
:1003E0000C9423340D94D9330C94037B0C945084D7
:1003F0000C9418424E414E494E495459494E46CDEF
:10040000CCCC3D0AD7233C17B7D13877CC2B3295CB
:1004100095E6241FB14F0A000020410000C84200A9
:10042000401C4620BCBE4CCA1B0E5AAEC59D740073
:10043000407A10F35A00A0724E18090010A5D4E8B3
:100440000000E87648170000E40B54020000CA9A46
:100450003B000000E1F50500008096980000004098
:10046000420F000000A086010000001027000000DD
:1004700000E803000000006400000000000A000023
:100480000000000100000000002C76D888DC674FD7
:100490000823DFC1DFAE59E1B1B796E5E3E453C607
:1004A0003AE651997696E8E6C28426EB898C9B62FF
:1004B000ED407C6FFCEFBC9C9F40F2BAA56FA5F4A9
:1004C00090055A2AF75C936B6CF9676DC11BFCE0D1
:1004D000E40D47FEF520E6B500D0ED902E03009424
:1004E0003577050080841E080000204E0A000000B9
:1004F000C80C333333330F986E12831141EF8D21C3
:1005000014893BE65516CFFEE6DB18D1844B381B29
:10051000F77C1D901DA4BBE424203284725E2281EE
:1005200000C9F124ECA1E53D275A5F53544F505FB9
:1005300050494E005A5F535445505F50494E005A3F
:100540005F4D494E5F50494E005A5F454E41424C07
:10055000455F50494E005A5F4449525F50494E0032
:10056000595F53544F505F50494E00595F535445A3
:10057000505F50494E00595F4D41585F50494E0001
:10058000595F454E41424C455F50494E00595F44CA
:1005900049525F50494E00585F53544F505F504985
:1005A0004E00585F535445505F50494E00585F4DC0
:1005B00041585F50494E00585F454E41424C455F9F
:1005C00050494E00585F4449525F50494E005355C0
:1005D00049434944455F50494E00534552564F33B5
:1005E0005F50494E00534552564F325F50494E00BE
:1005F000534552564F315F50494E00534552564F66
:10060000305F50494E00534453530053445F4445B8
:10061000544543545F50494E004D4F534645545F37
:10062000435F50494E004D4F534645545F425F5023
:10063000494E004D4F534645545F415F50494E006F
:1006400054454D505F305F43535F50494E004C4519
:10065000445F50494E004845415445525F4245442D
:100660005F50494E004845415445525F305F504904
:100670004E0046494C5F52554E4F55545F50494EBF
:100680000046414E5F50494E0045315F535445503E
:100690005F50494E0045315F454E41424C455F50E9
:1006A000494E0045315F4449525F50494E00453143
:1006B0005F43535F50494E0045305F535445505F90
:1006C00050494E0045305F454E41424C455F5049D0
:1006D0004E0045305F4449525F50494E0042454507
:1006E0005045525F50494E004156525F53535F5040
:1006F000494E004156525F53434B5F50494E0041B3
:1007000056525F4D4F53495F50494E004156525F1C
:100710004D49534F5F50494E0054454D505F42453F
:10072000445F50494E0054454D505F315F50494E33
:100730000054454D505F305F50494E0046494C577C
:10074000494454485F50494E00545844320052586E
:1007500044320054584430005258443000434F4D06
:100760004D554E49434154494F4E004452595255FC
:100770004E004552524F525300494E464F0045439A
:10078000484F004572726F722077726974696E67A4
:1007900020746F20454550524F4D210A00363726B0
:1007A000033C3D380E2E303E121A1C180A4309082D
:1007B00044000153544F505045442E20005072695C
:1007C0006E7465722073746F7070656420647565F3
:1007D00020746F206572726F72732E2046697820C4
:1007E000746865206572726F7220616E6420757323
:1007F00065204D39393920746F20726573746172C8
:10080000742E202854656D70657261747572652050
:1008100069732072657365742E2053657420697442
:100820002061667465722072657374617274696E9A
:1008300067290A004E6F20436865636B73756D20EE
:1008400077697468206C696E65206E756D6265727B
:100850002C204C617374204C696E653A20004E6FF9
:1008600020436865636B73756D2077697468206CCD
:10087000696E65206E756D6265722C204C617374B3
:10088000204C696E653A2000636865636B73756D13
:10089000206D69736D617463682C204C61737420E2
:1008A0004C696E653A20004C696E65204E756D622C
:1008B0006572206973206E6F74204C617374204CD4
:1008C000696E65204E756D6265722B312C204C610E
:1008D0007374204C696E653A20004D3131300053FD
:1008E000657269616C20737461747573206D6973CE
:1008F0006D617463680A00776169740A005344206B
:1009000072656164206572726F720A002121204B4A
:10091000494C4C2063617573656420627920746F63
:100920006F206D75636820696E61637469766520F8
:1009300074696D65202D2063757272656E74206315
:100940006F6D6D616E643A2000486F74656E64204F
:1009500049646C652054696D656F757400486F74E7
:10096000656E642049646C652054696D656F7574AB
:100970000A003D3D6F6E46696C616D656E7452751F
:100980006E6F75743D3D007061757365004D363056
:1009900030002066696C616D656E745F72756E6F94
:1009A0007574200066696C616D656E745F72756E3A
:1009B0006F757420540046696C616D656E74527574
:1009C0006E6F75742054004D3130303053006275B5
:1009D00073793A2070617573656420666F7220695F
:1009E0006E7075740A00627573793A207061757360
:1009F000656420666F7220757365720A0062757394
:100A0000793A2070726F63657373696E670A0025A7
:100A1000533A202553002A2A2A6B696C6C2A2A2A09
:100A200000706F7765726F6666004B494C4C4544A9
:100A30002E20005072696E7465722068616C746556
:100A4000642E206B696C6C28292063616C6C656472
:100A5000210A0053544F505045442E2000507269D3
:100A60006E7465722073746F707065642064756550
:100A700020746F206572726F72732E204669782021
:100A8000746865206572726F7220616E6420757380
:100A900065204D39393920746F2072657374617225
:100AA000742E202854656D706572617475726520AE
:100AB00069732072657365742E20536574206974A0
:100AC0002061667465722072657374617274696EF8
:100AD00067290A006563686F3A004572726F723A5F
:100AE0000042696C696E656172204C6576656C695F
:100AF0006E6720477269643A0A0021212053544FDF
:100B0000502063616C6C6564206265636175736518
:100B1000206F6620424C546F756368206572726F57
:100B200072202D2072657374617274207769746805
:100B3000204D3939390A0021212053544F50206368
:100B4000616C6C65642062656361757365206F66B6
:100B500020424C546F756368206572726F72202D4D
:100B600020726573746172742077697468204D39DE
:100B700039390A002F2F616374696F6E3A006E6F06
:100B800074696669636174696F6E200070726F6D5D
:100B900070745F00656E6400486F74656E642074E5
:100BA0006F6F20636F6C640A0053656E64204D3173
:100BB000303820746F20726573756D650A00496E58
:100BC000736572742066696C616D656E7420616E08
:100BD000642073656E64204D3130380A00526568B8
:100BE00065617420446F6E65005265686561746963
:100BF0006E672E2E2E00526568656174004865612F
:100C00007465722054696D656F75740053656E6408
:100C1000204D31303820746F2068656174206E6F0C
:100C20007A7A6C650A004E6F7A7A6C652050617230
:100C30006B65640070617573656400506175736500
:100C40000057616974696E6720666F72206865611C
:100C50007475702E0A004C656176696E67204732A4
:100C600036003F53706563696669656420582C5986
:100C700020636F6F7264696E617465206F75742094
:100C80006F6620626F756E64732E0A003F285229CA
:100C900065706561742076616C7565206E6F742077
:100CA000706C61757369626C653B206D757374203F
:100CB0006265206174206C6561737420312E0A00B6
:100CC0003F2852296570656174206D7573742062C8
:100CD0006520737065636966696564207768656E11
:100CE000206E6F74207573696E6720616E204C43AF
:100CF000442E0A003F537065636966696564206E1F
:100D00006F7A7A6C652074656D7065726174757246
:100D100065206E6F7420706C61757369626C652EEE
:100D20000A003F5370656369666965642066696C93
:100D3000616D656E742073697A65206E6F742070C2
:100D40006C61757369626C652E0A003F5370656350
:100D50006966696564207072696D65206C656E678F
:100D60007468206E6F7420706C61757369626C6555
:100D70002E0A003F5072696D65206C656E6774685D
:100D8000206D757374206265207370656369666990
:100D90006564207768656E206E6F74207573696E68
:100DA0006720616E204C43442E0A003F53706563F8
:100DB0006966696564206E6F7A7A6C652073697AFA
:100DC00065206E6F7420706C61757369626C652E3E
:100DD0000A003F52657472616374696F6E204D75CD
:100DE0006C7469706C696572206D757374206265CE
:100DF000207370656369666965642E0A003F5370ED
:100E000065636966696564205265747261637469BB
:100E10006F6E204D756C7469706C696572206E6FB1
:100E20007420706C61757369626C652E0A003F53A3
:100E30007065636966696564206C617965722068B4
:100E40006569676874206E6F7420706C6175736972
:100E5000626C652E0A0043292E0A003F53706563B9
:100E60006966696564206265642074656D70657289
:100E70006174757265206E6F7420706C6175736932
:100E8000626C65202834302D00473236207374613F
:100E90007274696E672E2E2E0A004F46460A00466F
:100EA0006164652048656967687420004265642054
:100EB0004C6576656C696E6720004661696C656497
:100EC00020746F20656E61626C6520426564204C01
:100ED0006576656C696E670A00496E76616C696457
:100EE000206D6573682E0A0050726F62696E67200C
:100EF000506F696E740025532025692F2569002ED7
:100F00000A002F0050726F62696E67206D6573680A
:100F100020706F696E742000202844525952554E3B
:100F20002900473239204175746F20426564204C96
:100F30006576656C696E67003F20284C2C522C4604
:100F40002C4229206F7574206F6620626F756E6465
:100F5000732E0A003F2856296572626F7365206CF4
:100F60006576656C20696D706C61757369626C651E
:100F70002028302D34292E0A00426164205A207620
:100F8000616C75650A004E6F2062696C696E6561FF
:100F90007220677269640A0020440020204D3230BC
:100FA00030205300202844697361626C6564293ADB
:100FB0000046696C616D656E742073657474696E4A
:100FC00067730020204D3230312058004D61782069
:100FD000416363656C65726174696F6E2028756E1C
:100FE0006974732F7332290020204D32303320581A
:100FF000004D6178206665656472617465732028B0
:10100000756E6974732F73290020520020204D32B1
:101010003034205000416363656C65726174696FA0
:101020006E2028756E6974732F7332292028503C06
:101030007072696E742D616363656C3E20523C7200
:101040006574726163742D616363656C3E20543C0A
:1010500074726176656C2D616363656C3E2900571F
:1010600041524E494E4721204C6F77205A204A6505
:10107000726B206D6179206C65616420746F2075DE
:101080006E77616E746564207061757365732E0A86
:101090000020540020530020204D323035204200E3
:1010A000416476616E6365642028423C6D696E5FC1
:1010B0007365676D656E745F74696D655F75733EAA
:1010C00020533C6D696E5F66656564726174653E50
:1010D00020543C6D696E5F74726176656C5F666505
:1010E0006564726174653E20583C6D61785F6A6525
:1010F000726B3E20593C6D61785F6A65726B3E2071
:101100005A3C6D61785F6A65726B3E20453C6D614B
:10111000785F6A65726B3E290020440020490020F8
:10112000204D333031205000486F74656E6420507C
:1011300049440020440020490020204D3330342011
:101140005000426564205049440050574D3A2020D9
:101150002534640050574D3A202025346400505700
:101160004D3A20202534640050574D3A2020253434
:10117000640050574D3A20202534640050574D3AB2
:1011800020202534640050574D3A20202534640037
:1011900050574D3A20202534640050574D3A2020B6
:1011A0002534640050574D3A2020253464005057B0
:1011B0004D3A20202534640050574D3A20202534E4
:1011C000640050574D3A20202534640050574D3A62
:1011D00020202534640050574D3A202025346400E7
:1011E00050574D3A2020253464003A20002020201A
:1011F00020434F4D002020206E6F6E2D7374616E62
:10120000646172642050574D206D6F64650020202A
:1012100020636F6D7061726520696E74657272759E
:10122000707420656E61626C6564002020206F76AA
:101230006572666C6F7720696E7465727275707412
:1012400020656E61626C6564003A200020202020D9
:1012500054494D534B00423A200020202020544353
:10126000435200413A2000202020205443435200A2
:101270002020202043533A20002020202057474D93
:101280003A200050574D3A20202534640050574DE5
:101290003A20202534640047004800000088008A76
:1012A000008C00B300B400000098009A009C00A8D5
:1012B00000AA00AC0028012A012C01202020205483
:1012C000494D455200440045006E00800081006F8A
:1012D00000B000B1007000900091007100A000A16A
:1012E00000720020012101730020697320616C737A
:1012F0006F207469656420746F207468697320704E
:10130000696E0054494D45523143000A202E002099
:1013100020002020506F72743A20002020200020EE
:101320002020416E616C6F6720696E203D2025355D
:101330006C64003C756E757365642F756E6B6E6FB3
:10134000776E3E0020284125326429202000253375
:1013500064200050494E3A20004F75747075742017
:101360003D2000496E70757420203D2000416E6163
:101370006C6F6720696E203D2025356C64007072AB
:101380006F746563746564200020284125326429E8
:10139000202000253364200050494E3A2000580791
:1013A0000001530701014E071101490710013C07D5
:1013B0003B003107430026074500190744000C078E
:1013C0003201FF063301F3063401E8063501DD067C
:1013D0002501D2061C01C4061801B8061A01AE0682
:1013E0002C01A306220195061E018906240181060F
:1013F00009017206020165060A01560608014E0639
:101400000D014006420133060A01260607011906AE
:1014100008010B06310106063501FB050B01F0053D
:101420000601E5050501DA050401CE050C01C40538
:101430003701B7052601AD050301A2053601970561
:1014400003018D053D018005380176050E016B0510
:101450003C0160050E015605300149053E013F057E
:10146000120134052E0129051201446F6E652E0A02
:101470000050756C73696E6720202000556E746F84
:101480007563686564200066616C73650046414958
:101490004C3A204E6F2074726967676572206465EC
:1014A0007465637465640A004641494C3A204E6F86
:1014B000697365206465746563746564202D2070AC
:1014C0006C656173652072652D72756E207465732D
:1014D000740A002064657465637465642E0A003DB7
:1014E00020424C546F756368207072652056332E0D
:1014F0003120286F7220636F6D70617469626C6552
:1015000029003D205A20536572766F2050726F6219
:1015100065003D20424C546F7563682056332E3170
:101520000020282B2F2D20346D73293A20003A20DB
:1015300033306D73206F72206D6F72650A002E203C
:1015400050756C7365207769647468002A2A20508E
:101550006C6561736520747269676765722070726B
:101560006F62652077697468696E20333020736517
:1015700063202A2A0A004641494C3A20424C544FE3
:1015800055434820656E61626C6564202D2053656B
:10159000742075702074686973206465766963656A
:1015A000206173206120536572766F2050726F62E4
:1015B00065207769746820494E56455254494E4714
:1015C0002073657420746F202774727565272E0A46
:1015D0000020204445504C4F594544207374617499
:1015E000653A204C4F5720286C6F6769632030297B
:1015F0000020204445504C4F594544207374617479
:10160000653A204849474820286C6F676963203154
:1016100029003D204D656368616E6963616C2053EC
:1016200077697463682064657465637465640A002F
:101630005741524E494E473A20494E564552544919
:101640004E472073657474696E672070726F6261B3
:10165000626C79206261636B77617264732E0A0039
:101660002E204465706C6F7920262073746F77206C
:10167000342074696D65730A003D20424C546F75C7
:10168000636820436C617373696320312E322C20B0
:10169000312E332C20536D61727420312E302C206A
:1016A000322E302C20322E322C20332E302C203370
:1016B0002E312064657465637465642E0A002E20E3
:1016C000436865636B20666F7220424C544F5543EC
:1016D000480A002E205A5F4D494E5F454E445354F0
:1016E0004F505F494E56455254494E473A20002EBE
:1016F0002050726F6265205A5F4D494E5F50494ECF
:101700003A20002C2073746F7720616E676C653A05
:10171000202020002C206465706C6F7920616E673A
:101720006C653A2000536572766F2070726F626547
:1017300020746573740A2E207573696E6720696E54
:101740006465783A2020004D343320576169742055
:1017500043616C6C6564004D3433205761697420BB
:1017600043616C6C6564005761746368696E6720DF
:1017700070696E730A0064697300656E0061626C63
:1017800065640A00656E6473746F70206D6F6E69B6
:10179000746F72200020580020204D61783A20009C
:1017A000200020204D696E3A2000203B20002020A0
:1017B0004D323131205300536F667420656E64736F
:1017C000746F7073003F43616E6E6F74207772693F
:1017D000746520746F20494E5055540A00496E7646
:1017E000616C69642050696E204D6F64650A002049
:1017F0003B0020550020204D363033204C004669F8
:101800006C616D656E74206C6F61642F756E6C6FAA
:101810006164004D323453256C6454256C64004778
:1018200039322E394525730047314625640047314A
:101830005A25734636303000473158257359257381
:101840004633303030004D313036502569532569EC
:10185000004D313039532569004D32303044257305
:10186000004739322E395A2573004D343230532512
:10187000635A257300473238523058590047315A5D
:10188000257346363030004739322E395A257300D9
:101890004739322E394530004D31303953256900F2
:1018A0004D313930532569004D34323020533020CA
:1018B0005A30003D3D4F6E506F7765724C6F7373B9
:1018C000526573756D653D3D00203B200020204D25
:1018D000343133205300506F7765722D6C6F737302
:1018E000207265636F76657279004F4646004F4EF1
:1018F00000203B20486F73742068616E646C696ED1
:10190000672000203B204D6F646520006D6D002036
:101910003B2044697374616E6365200046696C61A5
:101920006D656E742072756E6F757420003B2000BB
:1019300020496E76616C696420657874727564659F
:1019400072200047322F4733206261642070617239
:10195000616D65746572730A00536C6565702E2E37
:101960002E005A2050726F626520506173742042BD
:1019700065640A005A2050726F626520506173746A
:1019800020426564004732384C3000205A3A20002B
:1019900020593A200042656420583A20004D657372
:1019A0006820706F696E74206F7574206F66207286
:1019B000616E67650A004D302053746F70004D31C1
:1019C0002053746F7000436C69636B20746F2052F6
:1019D0006573756D652E2E2E004E6F204D6F7665EA
:1019E0002E00456E642066696C65206C6973740A0C
:1019F00000426567696E2066696C65206C69737466
:101A00000A004E6F206D656469610A005265737546
:101A10006D696E6720534400286E6F2066696C659F
:101A2000290043757272656E742066696C653A2090
:101A3000005072696E742074696D653A20000A5313
:101A4000746174733A2046696C616D656E742075BB
:101A50007365643A20002C204C6F6E6765737420A8
:101A60006A6F623A2000546F74616C2074696D650E
:101A70003A200053746174733A20002C2046616947
:101A80006C65643A20002C2046696E697368656451
:101A90003A20005072696E74733A20005374617476
:101AA000733A20006F6B006F6666007E07790772DD
:101AB000076B075D0744454255473A004D313133C6
:101AC000205300544D334420453520506C7573200D
:101AD0004F46462E002F2F0046523A0020466C6F8C
:101AE000773A200050726F746563746564205069A2
:101AF0006E0A003A200020536572766F2000206F36
:101B00007574206F662072616E67650A0053657296
:101B1000766F200050726F6265204F666673657441
:101B2000205A0050726F6265204F6666736574209C
:101B30005A0064697300656E0043290A0061626C93
:101B4000656420286D696E2074656D702000436F98
:101B50006C642065787472756465732061726520A9
:101B600000504944204175746F74756E650050498A
:101B700044204175746F74756E65206661696C658B
:101B80006421204261642068656174657220696423
:101B90000A00424C546F756368204853206D6F648F
:101BA0006520004D34323120696E636F7272656357
:101BB0007420706172616D65746572207573616700
:101BC000650A004D65736820706F696E74206F75CB
:101BD00074206F662072616E67650A004F666673D7
:101BE000657473204170706C696564004572723A67
:101BF00020546F6F206661722100546F6F20666100
:101C0000722066726F6D207265666572656E6365BF
:101C100020706F696E740A00454550524F4D204F39
:101C20004B0A002E0A002028302D31302900207662
:101C3000616C7565206F7574206F662072616E67C8
:101C40006500416476616E6365204B3D000A206942
:101C50006E6974207A70726F62655F7A6F66667300
:101C60006574203D20003D3D6F6E436F6E66696771
:101C700075726174696F6E53746F726552656164D9
:101C80003D3D00454550524F4D20496E6974696194
:101C90006C697A65640A0048617264636F646564A4
:101CA0002044656661756C742053657474696E6751
:101CB00073204C6F616465640020286D6D290020DD
:101CC0003B204C6576656C696E67200020204D34A2
:101CD00032302053004175746F20426564204C659A
:101CE00076656C696E670020204D393030204B00DE
:101CF0004C696E65617220416476616E6365004671
:101D0000696C616D656E742072756E6F7574207389
:101D1000656E736F7200204A0020204732392057C9
:101D200020490020204D3134392043203B20556E7E
:101D300069747320696E2043656C736975730A005A
:101D400054656D706572617475726520556E697445
:101D500073002020473231203B004C696E65617270
:101D600020556E69747300454550524F4D20646193
:101D7000746173697A65206572726F722E0A0053FE
:101D8000657474696E6720566F6C756D65204F6E53
:101D9000203A200053657474696E67205374616E35
:101DA000646279204F6E203A200053657474696E26
:101DB0006720566F6C756D65203A2000536574740A
:101DC000696E6720526F746174696F6E203A2000EB
:101DD00053657474696E67205374616E6462792010
:101DE00054696D65203A200053657474696E6720EC
:101DF0005374616E646279203A200053657474698B
:101E00006E67204272696768746E657373203A204A
:101E1000004C6F6164696E67204457494E204C4303
:101E2000442073657474696E672066726F6D204517
:101E30004550524F4D0A0044697363617264696E84
:101E400067204457494E204C43442073657474699D
:101E50006E672066726F6D20454550524F4D202DA4
:101E60002073657474696E67732076657273696F29
:101E70006E20696E636F72726563740A00446973E1
:101E800063617264696E67204457494E204C434435
:101E90002073657474696E672066726F6D204545A6
:101EA00050524F4D202D2073697A6520696E636F03
:101EB00072726563740A0053746F7265642073658F
:101EC0007474696E6773207265747269657665648F
:101ED00000290A002062797465733B2063726320D5
:101EE000002073746F7265642073657474696E6723
:101EF00073207265747269657665642028004545B3
:101F000050524F4D20435243204572726F72002051
:101F10002863616C63756C6174656429210A002013
:101F2000213D2000454550524F4D20435243206DE6
:101F300069736D61746368202D202873746F7265F6
:101F4000642920002053697A653A2000496E64654F
:101F5000783A200000803B4400803B440000204150
:101F6000000096420000A0420000A0420000484449
:101F70000000BE42D0070000D0070000640000004F
:101F80004B000000454550524F4D20566572736915
:101F90006F6E204572726F7200204D61726C696EB7
:101FA0003D563837290A00454550524F4D20766539
:101FB0007273696F6E206D69736D61746368202838
:101FC000454550524F4D3D0024F4D43050C38E202F
:101FD000C2A24017828B7011127A910D816CD90ABE
:101FE000A861E108C7586607615143061E4B5D05AD
:101FF000C145A7041A411104093D98037139310301
:102000004036DB0265339102D4305402802E1D022B
:10201000632CEE01752AC501B028A00110278101AB
:102020008F2564012B244B01E0223401AC211F01D8
:102030008D200D01801FFC00841EED00971DDF0028
:10204000B81CD200E61BC600201BBC00641AB200FC
:10205000B219A8000A19A0006A189900D1179100B6
:1020600040178B00B516840031167E00B315790039
:102070003A157300C7146F0058146A00EE13660017
:102080008813630025135E00C7125B006C125700B3
:1020900015125400C111510070114F0021114B0055
:1020A000D61049008D10470046104400021042002F
:1020B000C00F4000800F3E00420F3C00060F3B0067
:1020C000CB0E3800930E37005C0E3500270E34001F
:1020D000F30D3200C10D3100900D3000600D2E0067
:1020E000320D2D00050D2C00D90C2B00AE0C290053
:1020F000850C29005C0C2700350C27000E0C2600EF
:10210000E80B2400C40B2400A00B23007D0B23004C
:102110005A0B2100390B2100180B2000F80A1F0070
:10212000D90A1E00BB0A1E009D0A1D00800A1D0060
:10213000630A1C00470A1B002C0A1B00110A1A0024
:10214000F7091A00DD091900C4091900AB091900C3
:10215000920917007B091800630917004C09160043
:1021600036091600200916000A091500F5081500A1
:10217000E0081400CC081400B8081400A4081400E7
:10218000900813007D0812006B0813005808120015
:10219000460812003408110023081100120811002B
:1021A00001081100F0071000E0071000D007100030
:1021B000C0071000B0070F00A107100091070E0024
:1021C00083070F0074070F0065070E0057070E0006
:1021D00049070E003B070D002E070E0020070D00DB
:1021E00013070D0006070D00F9060C00ED060D00A3
:1021F000E0060C00D4060C00C8060C00BC060C005F
:10220000B0060C00A4060B0099060C008D060B000E
:1022100082060B0077060B006C060B0061060A00B5
:1022200057060B004C060A0042060A0038060A0050
:102230002E060A0024060A001A060A0010060900E3
:1022400007060A00FD050900F4050900EB05090071
:10225000E2050900D9050900D0050900C7050900F4
:10226000BE050900B5050800AD050800A505090073
:102270009C050800940508008C05080084050800EA
:102280007C050800740508006C050700650508005A
:102290005D050700560508004E05070047050700C5
:1022A0004005080038050700310507002A0507002A
:1022B000230507001C050600160507000F0507008B
:1022C0000805060002050700FB040600F5040700E8
:1022D000EE040600E8040600E2040700DB04060042
:1022E000D5040600CF040600C9040600C304060096
:1022F000BD040600B7040600B1040500AC040600E6
:10230000A6040600A00405009B0406009504050031
:10231000900406008A040500850405008004060078
:102320007A04050075040500700405006B040500BF
:1023300066040500610405005C04050057040500FF
:10234000520405004D04050048040500430405003F
:102350003E0404003A04050035040500300404007E
:102360002C04050027040400230405001E040400B7
:102370001A04040016040500110404000D040400EE
:10238000090405000404040000040400FC03040024
:10239000F8030400F4030400F0030400EC03040059
:1023A000E8030400E4030400E0030400DC03040089
:1023B000D8030400D4030400D0030400CC030400B9
:1023C000C8030300C503030024F404D9201BC40C74
:1023D0005C0E9804C4095F0265077101F405F900F9
:1023E000FB04B30048048700C1036900580355008B
:1023F00003034500BE023A008402310053022A0062
:102400002902250004022000E4011C00C801190073
:10241000AF0117009801140084011300710110002E
:102420006101100051010E0043010D0036010B0047
:102430002B010B0020010B00150109000C01090004
:1024400003010800FB000800F3000800EB00070090
:10245000E4000600DE000600D8000600D2000600F8
:10246000CC000500C7000500C2000500BD00040047
:10247000B9000400B5000400B1000400AD00040080
:10248000A9000400A5000300A20003009F000400AF
:102490009B000300980003009500020093000300D6
:1024A000900003008D0002008B00030088000200F2
:1024B0008600020084000300810002007F00020009
:1024C0007D0002007B00020079000200770001001D
:1024D0007600020074000200720001007100020028
:1024E0006F0002006D0001006C0002006A00010034
:1024F000690002006700010066000100650001003C
:10250000640002006200010061000100600001003F
:102510005F0002005D0001005C0001005B00010043
:102520005A00010059000100580001005700010045
:102530005600010055000100540001005300000046
:102540005300010052000100510001005000010041
:102550004F0001004E0000004E0001004D00010040
:102560004C0001004B0000004B0001004A0001003C
:102570004900010048000000480001004700010038
:102580004600000046000100450000004500010033
:10259000440001004300000043000100420000002D
:1025A0004200010041000000410001004000010024
:1025B0003F0000003F0001003E0000003E0001001F
:1025C0003D0000003D0001003C0000003C00000018
:1025D0003C0001003B0000003B0001003A0000000D
:1025E0003A00010039000000390001003800000005
:1025F00038000000380001003700000037000100FB
:1026000036000000360000003600010035000000F2
:1026100035000000350001003400000034000000E7
:1026200034000100330000003300000033000100DB
:1026300032000000320000003200010031000000D2
:1026400031000000310001003000000030000000C7
:10265000300001002F0000002F0000002F000000BC
:102660002F0001002E0000002E0000002E000100AF
:102670002D0000002D0000002D0000002D000100A5
:102680002C0000002C0000002C0000002C00010099
:102690002B0000002B0000002B0000002B0001008D
:1026A0002A0000002A0000002A0000002A00010081
:1026B0002900000029000000290000002900000076
:1026C0002900010028000000280000002800000068
:1026D000280000002800010027000000270000005B
:1026E000270000002700000027000100260000004E
:1026F0002600000026000000260000002600010041
:102700002500000025000000250000002500000035
:102710002500000025000100240000002400000026
:102720002400000024000000240001002300000019
:10273000230000002300000023000000230000000D
:1027400023000000230001002200000022000000FE
:1027500022000000220000002200000022000100F0
:1027600021000000210000002100000021000000E5
:1027700021000000210000002100010020000000D5
:1027800020000000200000002000000020000000C9
:102790002000000020000000200001001F000000B9
:1027A0001F0000001F0000001F0000001F000000AD
:1027B0001F0000001F0001001E0000001E0000009E
:1027C0001E0000001E000000232C0000B8220000A4
:1027D000561800003A0F0000B8080000B1040000CD
:1027E000710200003E01000020436F756E74205896
:1027F0003A0023646566696E652044454641554C40
:10280000545F0000626564004B6420004B69200047
:102810004B7020005049442074756E696E672064C7
:102820006F6E6500504944204175746F74756E6514
:102830002066696E69736865642120507574207420
:102840006865206C617374204B702C204B6920618B
:102850006E64204B6420636F6E7374616E747320BA
:1028600066726F6D2062656C6F7720696E746F2081
:10287000436F6E66696775726174696F6E2E680A60
:1028800000504944204175746F74756E652066610F
:10289000696C6564212074696D656F75740A004107
:1028A00075746F74756E65206661696C656421204E
:1028B00054696D656F75742E0050494420417574DC
:1028C0006F74756E65206661696C6564212054655E
:1028D0006D706572617475726520746F6F206869C0
:1028E00067680A00504944204379636C657300258A
:1028F000532025692F256900204B643A2000204B86
:10290000693A2000204B703A200020436C617373B9
:10291000696320504944200A00204E6F206F76657D
:102920007273686F6F740A002054753A2000204B50
:10293000753A2000206D61783A2000206D696E3A6A
:10294000200020643A200020626961733A20004828
:10295000656174696E672E2E2E00504944204175C2
:10296000746F74756E652073746172740A004175BA
:10297000746F74756E65206661696C65642E205491
:10298000656D706572617475726520746F6F206813
:102990006967682E00504944204175746F74756EE4
:1029A00065206661696C6564212054656D7065728F
:1029B000617475726520746F6F20686967680A00BA
:1029C000426564004531004500626564002C207357
:1029D000797374656D2073746F707065642120481D
:1029E00065617465725F49443A20004865617469A5
:1029F0006E67204661696C65640048656174696E44
:102A000067206661696C6564004D3131322053681E
:102A10007574646F776E001000C90210012C0140BC
:102A200001220170011801B0010E01F001040150F2
:102A300002FA00B002F0003003E600D003DC0090A0
:102A400004D2007005C800A006BE000008B400B0A3
:102A500009AA00D00BA000600E960060118C000047
:102A600015820020197800C01D6E00A0226400B0FD
:102A7000275A00902C500000314600E0343C0010F2
:102A8000383200903A2800603C1E00A03D140080BF
:102A90003E0A00203F00004572723A204D415854D2
:102AA000454D50004D415854454D50207472696752
:102AB0006765726564004572723A204D494E54450F
:102AC0004D50004D494E54454D5020747269676712
:102AD0006572656400544845524D414C2052554E34
:102AE0004157415900546865726D616C2052756E92
:102AF00061776179000A0A0020205A5F4D494E3AF9
:102B0000002020595F4D41583A002020585F4D4128
:102B1000583A00202F002042403A0020403A00203E
:102B2000573A0020573A00496E76616C6964206517
:102B3000787472756465720A007C3C3E5E2B3D3F82
:102B40002F5B5D3B2C2A225C0043616E6E6F74200C
:102B50006F70656E2073756264697220004D6564E4
:102B6000696120496E6974204661696C0053442094
:102B700063617264206F6B0A006F70656E526F6FD5
:102B800074206661696C65640A00766F6C756D65AA
:102B90002E696E6974206661696C65640A004E6F07
:102BA00020534420636172640A000A4D3234004DA0
:102BB0003233202573002E0A006F70656E20666127
:102BC000696C65642C2046696C653A200046696C26
:102BD000652073656C65637465640A002053697AC7
:102BE000653A200046696C65206F70656E65643AD1
:102BF0002000454E4420535542524F5554494E45AE
:102C00000A002220706F73002220706172656E745A
:102C10003A2200535542524F5554494E45204341A4
:102C20004C4C207461726765743A2200537562637C
:102C3000616C6C204F766572666C6F7700457863C7
:102C40006565646564206D617820535542524F5527
:102C500054494E452064657074683A002E0A004459
:102C6000656C6574696F6E206661696C65642C20A3
:102C700046696C653A200046696C652064656C6540
:102C80007465643A005344207072696E74696E67AB
:102C9000206279746520004E6F7420534420707256
:102CA000696E74696E670A002F6175746F25632EF3
:102CB000670057726974696E6720746F2066696C6B
:102CC000653A2000667265736800646F696E67001C
:102CD0002066696C653A20004E6F772000202050F6
:102CE0006C616E6E65724275666665724279746576
:102CF000733A20002046726565204D656D6F7279CC
:102D00003A200020436F6D70696C65643A204D6114
:102D10007920313520323032320A00204C61737410
:102D200020557064617465643A20323032322D303F
:102D3000342D3033207C20417574686F723A2054F2
:102D4000696E794D616368696E657333440A004D3D
:102D500061726C696E204457372E342E360A00207B
:102D6000536F6674776172652052657365740A00EB
:102D7000205761746368646F672052657365740AD5
:102D8000002042726F776E206F75742052657365F4
:102D9000740A002045787465726E616C2052657308
:102DA00065740A00506F77657255700A007374611C
:102DB00072740A004739310A47315A350A473930A7
:102DC0000A4D38340A4D31303453300A4D313430E5
:102DD0005330004D31303031006572726F722077A0
:102DE000726974696E6720746F2066696C650A0089
:102DF000446F6E6520736176696E672066696C65E5
:102E00002E0A004D323900456E6473746F70730082
:102E1000255320256320256320256320256300207A
:102E20005A3A0020593A0020583A00656E6473748B
:102E30006F7073206869743A20000000210024003C
:102E400027002A002D00300033000101000004019A
:102E500007010A0100002200250028002B002E0097
:102E60003100340002010000050108010B010000DF
:102E700020002300260029002C002F003200000132
:102E800000000301060109010505050507050808FD
:102E90000808020202020A0A0808040404040101E4
:102EA00001010101010103030303030303030407F9
:102EB00007070C0C0C0C0C0C0C0C02020202060690
:102EC0000606060606060B0B0B0B0B0B0B0B010283
:102ED000102020080810204010204080020102012C
:102EE00008040201010204081020408080402010E4
:102EF000080402018004020180402010080402013D
:102F000008040201010204081020408001020408A4
:102F10001020408000000A0B02090C0D0E08070368
:102F2000040100000000000000000000000000009C
:102F30000000000000000000000000000000000091
:102F4000121110000000000000000000000000004E
:102F50000000000000000000000050726F62696E07
:102F600067204661696C65640A0050726F62696E21
:102F700067204661696C656400205A3A2000205938
:102F80003A200042656420583A2000726573756DDE
:102F90006564004469736D69737300526573756D80
:102FA000696E670073686F7700627574746F6E0086
:102FB000626567696E0044697361626C6552756E23
:102FC0006F75740050757267654D6F726500506162
:102FD0007573656400436F6E74696E7565004C6F40
:102FE00061642046696C616D656E742054004C6F9D
:102FF00061642046696C616D656E7400496E73652D
:1030000072742066696C616D656E7420616E6420F7
:1030100073656E64204D3130380A0020204D323007
:1030200036205800486F6D65206F666673657400C2
:103030004361703A00434F4E4649475F4558504FF1
:103040005254004D4541545041434B00434F4F4C67
:1030500045525F54454D50455241545552450043E9
:1030600048414D4245525F54454D5045524154559B
:10307000524500424142595354455050494E470031
:1030800041524353004D4F54494F4E5F4D4F4445BD
:103090005300544845524D414C5F50524F544543A4
:1030A00054494F4E00455854454E4445445F4D32B7
:1030B0003000435553544F4D5F4649524D5741528E
:1030C000455F55504C4F4144004C464E5F57524966
:1030D0005445004C4F4E475F46494C454E414D4587
:1030E000004155544F5245504F52545F53445F5323
:1030F00054415455530053445F575249544500526C
:103100004550454154004D554C54495F564F4C5520
:103110004D45005344434152440050524F4D50548A
:103120005F535550504F525400484F53545F4143E2
:1031300054494F4E5F434F4D4D414E445300454D12
:10314000455247454E43595F504152534552004303
:103150004153455F4C494748545F425249474854A0
:103160004E45535300544F47474C455F4C494748E1
:10317000545300534F4654574152455F504F5745A3
:1031800052004255494C445F50455243454E54000D
:103190004C4556454C494E475F44415441005A5FA7
:1031A00050524F42450052554E4F555400415554D0
:1031B0004F4C4556454C005052494E545F4A4F4281
:1031C0000050524F4752455353004155544F5245BA
:1031D000504F52545F54454D50004155544F524545
:1031E000504F52545F504F5300564F4C554D45541D
:1031F00052494300454550524F4D0042494E4152BD
:10320000595F46494C455F5452414E534645520022
:1032100053455249414C5F584F4E5F584F46460008
:103220004649524D574152455F4E414D453A4D61D9
:10323000726C696E204457372E342E3620544D332D
:103240004420453550534D44424220284D61792059
:10325000313520323032322031313A31323A35365E
:103260002920534F555243455F434F44455F5552C4
:103270004C3A68747470733A2F2F6769746875627A
:103280002E636F6D2F496E73616E69747941757429
:103290006F6D6174696F6E2F4D61726C696E2F7402
:1032A0007265652F437265616C6974794477696EE4
:1032B0005F322E302050524F544F434F4C5F564593
:1032C0005253494F4E3A312E30204D414348494EDA
:1032D000455F545950453A544D33442045352050AC
:1032E0006C75732045585452554445525F434F55B1
:1032F0004E543A3120555549443A6365646532610C
:1033000032662D343161322D343734382D39623103
:10331000322D6335356336326633363766660A00DA
:10332000290A0020746F20003F5A206F7574206FA7
:10333000662072616E6765202800290A0020746F7C
:1033400020003F59206F7574206F662072616E6790
:103350006520282D00290A0020746F20003F582086
:103360006F7574206F662072616E676520282D006E
:10337000203B0020204D3835312058005A2D507206
:103380006F6265204F6666736574004D3834004483
:103390006F6E65207072696E74696E672066696C05
:1033A000650A004D3737004D33310043616E6E6F53
:1033B00074206F70656E20737562646972200025D9
:1033C00069730025696D20256973002569682025CA
:1033D000696D2025697300256964202569682025A9
:1033E000696D202569730025697920256964202588
:1033F00069682025696D2025697300436F6F6C69CA
:103400006E672E2E2E004531202553004265642024
:10341000436F6F6C696E672E2E2E004265642048E4
:10342000656174696E672E2E2E003D3D4477696E8E
:1034300020496E697420436F6D706C6574653D3D05
:1034400000202D206434200064333A2000202D20F9
:103450006432200064313A2000202D206C656E20FB
:103460000056502072656365697665643A2000777E
:10347000616974776179203D3D0020202A2A2A2A3B
:103480002A2A2A5254535F48616E646C6544617401
:10349000612A2A2A2A2A2A2A2A20002A2A2A4E6F20
:1034A0007A7A6C6554656D705374617475735B32B0
:1034B0005D203D003D3D48656174696E6720446F45
:1034C0006E65204368616E67652046696C616D6555
:1034D0006E743D3D002020737461727470726F676A
:1034E0007265737320004D32320A4D3231003D3D1A
:1034F0007761697477617920353D3D003D3D7761A5
:10350000697477617920343D3D003D3D7761697490
:1035100077617920333D3D003D3D77616974776186
:103520007920313D3D00436F6E6669726D20436FB7
:103530006E74696E7565005061757365537461745E
:10354000757300524553554D45204F5054494F4EC9
:10355000533A0048656174696E672E2E2E00000094
:10356000436C69636B20746F2068656174000000B0
:10357000526573756D696E672E2E2E0000005075B2
:103580007267696E672E2E2E000000496E73657299
:103590007420616E6420436C69636B000000436CAF
:1035A00069636B20746F20636F6E74696E7565005C
:1035B0000000456A656374696E672E2E2E00000058
:1035C000506C6561736520776169742E2E2E000042
:1035D000005061726B696E672E2E2E0000002A2A41
:1035E0002A496E6974696E67206361726420697329
:1035F000204F4B2A2A2A003D3D6F6E5072696E742F
:1036000054696D657253746F707065643D3D003D23
:103610003D6F6E55736572436F6E6669726D52656C
:103620007175697265643D3D005061757365204D2B
:103630006F646520537461747573004C6F616469C5
:103640006E672E2E2E0000003D3D6F6E4661637446
:103650006F727952657365743D3D00270A0A000058
:10366000272027002027002D0063616E63656C0012
:103670005072696E742041626F72746564005549BE
:103680002041626F7274656400726573756D6500C8
:103690004D3234002A2A2A43506C617920546F6ECF
:1036A000652A2A2A003D3D6F6E5072696E74546916
:1036B0006D65725061757365643D3D00486F6D695D
:1036C0006E67204661696C65640050524553454EF3
:1036D00054004F5554006F70656E0054524947476F
:1036E00045524544003A20004D4F54494F4E203A30
:1036F00020004F46460A003A200066696C616D65FD
:103700006E74007A5F6D696E00795F6D6178007824
:103710005F6D6178005265706F7274696E672065C5
:103720006E6473746F70207374617475730A002013
:10373000746F6F206C6F6E67206578747275736933
:103740006F6E2070726576656E7465640A00206322
:103750006F6C6420657874727573696F6E20707217
:103760006576656E7465640A00486F6D6520257323
:1037700025732573204669727374005761726E69F0
:103780006E673A20486F6D696E672042756D7020D4
:1037900044697669736F72203C20310A000202048A
:1037A0000000B4430000B443000000000000B44334
:1037B0000000B4430000C843000000410000004185
:1037C000000000400101FF000000010000000100B6
:1037D000008000555555000000400033333300AAE7
:1037E000AA2A004992240000002000C7711C0099F9
:1037F000991900D1451700555515003BB113002408
:1038000049120011111100000010000F0F0F00E30A
:10381000380E0043790D00CCCC0C00C3300C00E80E
:10382000A20B0064210B00AAAA0A00703D0A009DA9
:10383000D80900427B090092240900DCD3080088E3
:103840008808001042080000000800F0C107008747
:1038500087070075500700711C07003EEB0600A1AA
:10386000BC06006990060066660600703E060061B0
:1038700018060017F4050074D105005BB00500B20E
:10388000900500627205005555050078390500B8AD
:103890001E0500050505004EEC040087D40400A1B8
:1038A000BD040090A7040049920400C17D0400EE0D
:1038B000690400C7560400444404005C3204000854
:1038C00021040041100400000004003FF00300F850
:1038D000E0030026D20300C3C30300CCB503003AC3
:1038E000A803000A9B0300388E0300C08103009FD9
:1038F000750300D0690300505E03001D53030034BC
:10390000480300913D0300333303001629030038B8
:103910001F030097150300300C0300030303000B83
:10392000FA020049F10200BAE802005CE002002D50
:10393000D802002DD0020059C80200B0C0020031E8
:10394000B90200DAB10200AAAA0200A0A30200BCD8
:103950009C0200FA9502005C8F0200DF8802008260
:10396000820200457C020027760200277002004395
:103970006A02007C640200D05E02003F590200C867
:10398000530200FFFDFCFAF8F6F4F2F0EEECEAE97F
:10399000E7E5E3E1E0DEDCDAD9D7D5D4D2D0CFCD8C
:1039A000CBCAC8C7C5C3C2C0BFBDBCBAB9B7B6B41D
:1039B000B3B2B0AFADACAAA9A8A6A5A4A2A1A09E7F
:1039C0009D9C9A99989795949392908F8E8D8B8ABF
:1039D0008988878684838281807F7E7D7B7A7978DF
:1039E00077767574737271706F6E6D6C6B6A6968DF
:1039F00067666564636261605F5E5D5C5B5A5958CF
:103A0000585756555453525150504F4E4D4C4B4AA7
:103A10004A4948474646454443424241403F3E3E6C
:103A20003D3C3B3B3A393838373635353433323222
:103A30003130302F2E2E2D2C2B2B2A2929282727C9
:103A400026252524232322212120201F1E1E1D1C64
:103A50001C1B1B1A191918181716161515141313F1
:103A600012121111100F0F0E0E0D0D0C0C0B0A0A75
:103A700009090808070706060505040403030202EE
:103A80000100003D3D6F6E5072696E7454696D6542
:103A900072537461727465643D3D000000B443006C
:103AA00000B4430000C84300000000000000000014
:103AB000000000536176696E67204457494E204CE0
:103AC00043442073657474696E672066726F6D205D
:103AD000454550524F4D0A003D3D6F6E536574741D
:103AE000696E677353746F7265643D3D005365740E
:103AF00074696E67732053746F72656400290A00DD
:103B00002062797465733B2063726320005365748F
:103B100074696E67732053746F7265642028007037
:103B2000012C0190012701B0012201C0011D01F00B
:103B30000118011002130130020E01600209019008
:103B4000020401C002FF000003FA004003F50080F8
:103B500003F000D003EB002004E6007004E100E075
:103B600004DC004005D700C005D2004006CD00D0DF
:103B700006C8008007C3003008BE00F008B900C0C6
:103B800009B400B00AAF00B00BAA00D00CA5000029
:103B90000EA000500F9B00C0109600501291000024
:103BA000148C00C0158700B0178200B0197D00D0BA
:103BB0001B7800001E730040206E0090226900F008
:103BC00024640040275F0090295A00E02B55001024
:103BD0002E500020304B0010324600E03341009060
:103BE000353C001037370070383200A0392D00B056
:103BF0003A2800A03B2300603C1E00103D190090B5
:103C00003D1400103E0F00703E0A00C03E0500004B
:103C10003F0000403FFBFF803FF6FFC03FF1FF2227
:103C20000A00556E6B6E6F776E20636F6D6D616EFF
:103C3000643A2022002042002050006F6B00204593
:103C400000205A0020590020204D393220580053BE
:103C5000746570732070657220756E6974002074CD
:103C60006F6F206C6F6E6720657874727573696F03
:103C70006E2070726576656E7465640A0020636FED
:103C80006C6420657874727573696F6E20707265EC
:103C900076656E7465640A004D323520500A4D32E7
:103CA0003400526573756D65005549205061757318
:103CB000650043616E6E6F7420656E74657220736B
:103CC00075626469723A20004E6F204D61746368BA
:103CD000203A00436F6E73747261696E206D657374
:103CE0006856616C20006D65736856616C200079C0
:103CF000506E74200078506E7420006D65736850AB
:103D00006F696E742000446973706C6179427269E6
:103D10006768746E657373205365743A2000446954
:103D200073706C61794272696768746E6573732031
:103D30004C43443A20004D32320A4D323100526534
:103D400066726573680050675570005067446F77FE
:103D50006E0049732046696C6520004973204469F0
:103D6000722000476F557044697200486173204D9E
:103D7000656469610046696C656E616D65205365B7
:103D80006C6563746564004D3130303043004D31F3
:103D9000303030002046696C616D656E742052656C
:103DA00073706F6E7365204E6F00526573756D652D
:103DB0002059657320647572696E67207072696E30
:103DC00074000A204E6F2046696C616D656E740048
:103DD000496E76616C6964204F7074696F6E004D36
:103DE0003530300053746F72652053657474696E9A
:103DF0006773004D3939390A4D32383050305331FC
:103E0000363000424C546F75636820526573657498
:103E1000004D3530320A4D35303000496E6974201E
:103E2000454550524F4D004D3530300053746F7240
:103E3000652053657474696E677300496E4C616EDA
:103E40006743686F696365000A202A2A2A726563DE
:103E50006461742E646174615B305D203D004732A3
:103E6000380A4731204631303030205A3130005541
:103E70006E737570706F72746564204F7074696FC3
:103E80006E2053656C6563746564004D3231315347
:103E9000300A4739310A47315A302E3032350A4715
:103EA00039300A4D3231315331004D3231315330D6
:103EB0000A4739310A47315A2D302E3032350A47F8
:103EC00039300A4D323131533100473239533200E3
:103ED00047323953310047323652323535004D3191
:103EE00039305335350A4732380A4732390A4D34AA
:103EF00030300A4D313034533231350A4732380AC6
:103F00004D313039533231350A4D34323053310A64
:103F10004731583130305931303046353030300A41
:103F200047315A300A4D3530300A4D313137205340
:103F30006574205A204F66667365740047312046C9
:103F400031303030205A302E30004732380A473175
:103F5000204631303030205A302E30005A204F6603
:103F600066736574203A202573005A204F66667385
:103F70006574203A202573004732385A0A47314683
:103F8000313530305A302E30004732380A4731460A
:103F9000313530305A302E3000426564204C657621
:103FA000656C204F7074696F6E2000526574757275
:103FB0006E203A20004D38340047314631303030E1
:103FC0005A302E30004732380A47314631303030CF
:103FD0005A302E30004D616E75616C5365745465B6
:103FE0006D70005A204F6666736574203A20257301
:103FF00000526F756E64696E6720746F207374650C
:104000007000526571756573746564204F666673E0
:104010006574200053746F7020547269676765720D
:1040200065640053746F70204E6F0053746F70504E
:1040300072696E740048616E646C652044617461DD
:104040002041646A75737420322053657474696EFC
:10405000672053637265656E200048616E646C650D
:104060002044617461205072696E7446696C6520E9
:10407000332053657474696E672053637265656E8F
:10408000200048616E646C65204461746120507248
:10409000696E7446696C6520322053657474696E6C
:1040A000672053637265656E20004D3834004861A7
:1040B0006E646C652044617461205072696E744650
:1040C000696C6520506F73740048616E646C652084
:1040D00044617461205072696E7446696C65205049
:1040E000726500426567696E537769746368003D65
:1040F0003D20436865636B6B65793D3D0072656388
:104100006461742E61646472203D3D007265636475
:1041100061742E646174615B305D203D3D0020451B
:104120003A00205A3A0020593A00583A006F6B0A78
:1041300000526573656E643A20006E6F746966693B
:10414000636174696F6E2000544D334420453520FF
:10415000506C75732052656164792E005072696EDF
:1041600074696E672E2E2E005072696E7420506135
:104170007573656400524553554D45204F50544961
:104180004F4E533A0048656174696E672E2E2E00BB
:104190000000436C69636B20746F20686561740074
:1041A0000000526573756D696E672E2E2E0000003B
:1041B00050757267696E672E2E2E0000004C6F617D
:1041C00064696E672E2E2E000000496E736572744E
:1041D00020616E6420436C69636B000000436C696E
:1041E000636B20746F20636F6E74696E7565000079
:1041F00000456A656374696E672E2E2E00000050BC
:104200006C6561736520776169742E2E2E00000045
:104210005061726B696E672E2E2E00000050617522
:1042200073654D73673D0000DA01CE0011241FBE97
:10423000CFEFD1E2DEBFCDBF00E00CBF84B78093EB
:10424000421A14BE0FB6F894A89580916000886158
:1042500080936000109260000FBE16E0A0E0B2E014
:10426000E6E0F9EA02E00BBF02C007900D92A63A21
:10427000B107D9F72AE1A6EAB6E001C01D92A2343F
:10428000B207E1F711E2C5E1D1E200E006C02197F3
:104290000109802FFE010F94B050C431D10780E096
:1042A0000807A9F70F94BB3B0D9471540C940000C0
:1042B0002091B807833021F425FD0CC024FD0CC0EB
:1042C00030E0A90102C0559547958A95E2F7CA01E9
:1042D0008170089581E0089580E008958091770AC3
:1042E00084FD0BC08091790A87FD07C090917A0AFE
:1042F000937081E019F480E0089581E00895082E1C
:10430000000C990BFC01E857F14DE491EE2391F07C
:10431000F0E0EE0FFF1FE259F14DA591B4912C9101
:104320008253914DFC018491282381E090E021F497
:1043300080E0089580E090E00895082E000C990B2D
:10434000FC01E857F14DE491F0E0EE0FFF1FE65C51
:10435000F14DA591B4912C918253914DFC01849122
:10436000822391E009F490E0892F0895CF92DF92A3
:10437000EF92FF92CF93DF93EC01CC80DD80EE8053
:10438000FF8027E137EB41ED58EBC701B6010F94F1
:10439000195387FD23C023E030E044EB53E4C70109
:1043A000B6010F94E9491816CCF0C880D980EA808C
:1043B000FB8027E137EB41ED58EBC701B6010F94C5
:1043C000195387FD0BC0C1E023E030E044EB53E418
:1043D000C701B6010F94E94918160CF4C0E08C2F00
:1043E000DF91CF91FF90EF90DF90CF900895BC01C7
:1043F000990F880B990B0F94F0492091E70A30919F
:10440000E80A4091E90A5091EA0A0F944F4A209134
:10441000DF0A3091E00A4091E10A5091E20A0F94DC
:10442000B9500895BC01990F880B990B0F94F0496E
:104430002091E30A3091E40A4091E50A5091E60A9E
:104440000F944F4A2091DB0A3091DC0A4091DD0A3B
:104450005091DE0A0F94B9500895EDE9F7E0949178
:10446000981739F0319697E0E33BF907C1F780E000
:10447000089581E00895269A2E9A08950F931F9328
:10448000CF93DF9300D01F92CDB7DEB79C010CE92C
:1044900019E090E1E4E6F2E0D80101900D929A95DE
:1044A000E1F7F9012081318142815381F801608572
:1044B0007185828593850F94B950F8016087718763
:1044C0008287938780E090E0A0EAB0E489839A83B2
:1044D000AB83BC83CE0101960E94EBD00F900F906E
:1044E0000F900F90DF91CF911F910F9108952F9210
:1044F0003F924F925F926F927F928F929F92AF9274
:10450000BF92CF92DF92EF92FF921F93CF93DF93F0
:10451000CDB7DEB72C970FB6F894DEBF0FBECDBF78
:104520007A011901DC012D913D914D915C912D8312
:104530003E834F835887FB014080518062807380A7
:104540008090640290906502A0906602B09067022D
:10455000A50194016D817E818F8198850F94E94931
:1045600081110EC011E0A301920160916802709167
:10457000690280916A0290916B020F94E94981115E
:1045800010E0D1012D913D914D915C9129873A87A1
:104590004B875C87F701C080D180E280F380209157
:1045A0000202309103024091040250910502C701BA
:1045B000B6010F94E949882309F44EC0C092020263
:1045C000D0920302E0920402F09205028091700200
:1045D00090917102A0917202B091730240916802B1
:1045E0005091690260916A0270916B0280929C09FD
:1045F00090929D09A0929E09B0929F094093A009B4
:104600005093A1096093A2097093A309C092A409D1
:10461000D092A509E092A609F092A7098093A80973
:104620009093A909A093AA09B093AB0920E030E0C8
:1046300040E05FE36091460F7091470F8091480F13
:104640009091490F0F944F4A69837A838B839C839F
:10465000CE0101960E94EBD02D813E814F8158857D
:1046600020939C0930939D0940939E0950939F0984
:104670004092A0095092A1096092A2097092A309E8
:10468000D1012D913D914D915C916091A80970915E
:10469000A9098091AA099091AB090F94B950609330
:1046A000A8097093A9098093AA099093AB091111E5
:1046B0002FC020E030E0A90169857A858B859C8533
:1046C0000F94E949811133C060E070E088EC92E416
:1046D00069837A838B839C83CE0101960E94EBD001
:1046E0002C960FB6F894DEBF0FBECDBFDF91CF91F1
:1046F0001F91FF90EF90DF90CF90BF90AF909F9071
:104700008F907F906F905F904F903F902F90089583
:104710002AEF3EE74AE25FE360914A0F70914B0F48
:1047200080914C0F90914D0F0F944F4AD1CF60E084
:1047300070E080EA91E4CCCFCF93DF9300D01F925A
:10474000CDB7DEB780E090E0A0EAB0E489839A8339
:10475000AB83BC8361E0CE0101960E9456D20F90DC
:104760000F900F900F90DF91CF910895BC01990F9A
:10477000880B990B0D94FB02CF92DF92EF92FF9280
:104780000F931F93CF93DF936B017A01EC01C25C0F
:10479000D84F28813CE0389F8001399F100D1124AB
:1047A00027FF24C0FB011182108288818F5F8883DC
:1047B00088819801280F311D87FD3A95C901209104
:1047C0004F16F6012817190629F024F088818C303D
:1047D0000CF43CC080819181049680349C4908F49B
:1047E00075C0F60180819181049672C0888198011C
:1047F000280F311D87FD3A95C90120914F162817C2
:10480000190699F294F28881A801480F511D87FD7D
:104810005A95FA01EE0FFF1FE40FF51FE95FF94EFD
:10482000808187FFC2CF8881F801E80FF11D87FDE5
:10483000FA95CF01EE0FFF1FE80FF91FE95FF94E60
:10484000808160E08F770E946082AFCF808191810C
:104850002881A801420F511D27FD5A959A01FA019E
:10486000EE0FFF1FE20FF31FE95FF94E2181328146
:10487000820F931FF7019183808388819801280F0D
:10488000311D87FD3A95F901EE0FFF1FE20FF31F6F
:10489000E95FF94E808187FF20C08881080F111DD4
:1048A00087FD1A95F801EE0FFF1FE00FF11FE95F7A
:1048B000F94E808161E08F77DF91CF911F910F9149
:1048C000FF90EF90DF90CF900C94608280E49CE9A1
:1048D000F701918380838FEF8883DF91CF911F91C0
:1048E0000F91FF90EF90DF90CF9008958091A807EF
:1048F0009091A907009731F04AE050E070E060E045
:104900000D94044860E070E0CB0108950F931F936D
:10491000CF93DF9300D000D01F921F92CDB7DEB7A8
:104920008B01FC0123A5211102C00E9417821D8268
:104930001E821F82188620E030E040E05FE3609135
:104940006C0270916D0280916E0290916F020F94D3
:10495000B95069837A838B839C839E012B5F3F4F81
:10496000AE014F5F5F4F68E672E084E692E00E941E
:1049700077221D821E821F82188620E030E040E0F0
:104980005FE3F80160857185828593850F94B95046
:1049900069837A838B839C83B8016C5F7F4F9E0110
:1049A0002B5F3F4FAE014F5F5F4FC8010E947722E0
:1049B00028960FB6F894DEBF0FBECDBFDF91CF9122
:1049C0001F910F9108958091A8079091A9070097D2
:1049D00031F04AE050E070E060E00D94D64660E0CF
:1049E00070E0CB0108950E94E32497FD0CC00E9463
:1049F000E3246F3F71058105910509F034F40E94AD
:104A0000E324862F089580E008958FEF0895809124
:104A1000A8079091A907892B41F00E94F32491E007
:104A2000811101C090E0892F089591E0FCCFFC0135
:104A3000659175918591949108958091E9088823F5
:104A400019F080E00E94A4D580E008958F929F9293
:104A5000AF92BF92CF92DF92EF92FF92CF93DF930C
:104A6000EC018090330B9090340BA090350BB090FC
:104A7000360B20E030E0A901C501B4010F94E949EB
:104A8000882309F454C0C880D980EA80FB80A7013C
:104A90009601C501B4010F94E94918160CF04CC0F9
:104AA00020912B0B30912C0B40912D0B50912E0B04
:104AB000C701B6010F94E949882331F1C0922B0B4D
:104AC000D0922C0BE0922D0BF0922E0B20912F0BFD
:104AD0003091300B4091310B5091320B68817981CC
:104AE0008A819B810F944F4A9B01AC0160E070E08A
:104AF00080E89FE30F94B85060930602709307021A
:104B00008093080290930902609106027091070257
:104B10008091080290910902DF91CF91FF90EF9070
:104B2000DF90CF90BF90AF909F908F90089560E0FE
:104B300070E080E89FE3F0CF60E070E0CB01ECCF65
:104B4000682F70E090E080E00D94FB029B01AC01C7
:104B5000485F5F4FBC016C5F7F4F0C9477222F92B0
:104B60003F924F925F926F927F928F929F92AF92FD
:104B7000BF92CF92DF92EF92FF920F931F93CF934A
:104B8000DF93CDB7DEB7A6970FB6F894DEBF0FBEA2
:104B9000CDBF8C011B015A87498740906402509019
:104BA0006502609066027090670280906802909043
:104BB0006902A0906A02B0906B02DB018D919D9119
:104BC0000D90BC91A02D8B8B9C8BAD8BBE8B9C01D3
:104BD000AD01C301B2010F94B8506B017C01D1014A
:104BE00014968D919D910D90BC91A02D8F8B988FD7
:104BF000A98FBA8F9C01AD01C501B4010F94B850C3
:104C00006B8F7C8F8D8F9E8FA985BA858D919D919D
:104C10000D90BC91A02D8B879C87AD87BE879C0192
:104C2000AD01C301B2010F94B8506F8F78A389A36F
:104C30009AA3A985BA8514968D919D910D90BC91EA
:104C4000A02D8F87988BA98BBA8B9C01AD01C501D4
:104C5000B4010F94B8506BA37CA38DA39EA3A701AE
:104C60009601C701B6010F944F4A6B017C012B8D51
:104C70003C8D4D8D5E8DCA01B9010F944F4A9B0149
:104C8000AC01C701B6010F94B9504B015C012B89EF
:104C90003C894D895E896B857C858D859E850F94C9
:104CA000B8502B013C012F89388D498D5A8D6F8565
:104CB000788989899A890F94B8506B017C01A30186
:104CC0009201C301B2010F944F4A2B013C01A7018D
:104CD0009601C701B6010F944F4A9B01AC01C30175
:104CE000B2010F94B9500F9467536B017C012F8D63
:104CF00038A149A15AA1CA01B9010F944F4A2B0109
:104D00003C012BA13CA14DA15EA1CA01B9010F94A8
:104D10004F4A9B01AC01C301B2010F94B9509B01F2
:104D2000AC01C501B4010F9419531816B4F520E075
:104D300030E0A901C701B6010F94195387FF2AC0BB
:104D4000C701B601905820E030E040EA50E40F94EB
:104D50001953181614F5A10169857A85C8010E94B6
:104D6000AF25A6960FB6F894DEBF0FBECDBFDF917C
:104D7000CF911F910F91FF90EF90DF90CF90BF9058
:104D8000AF909F908F907F906F905F904F903F90EB
:104D90002F900895C701B601D6CF20E030E040E063
:104DA00050E4C501B4010F941953181624F4B1014D
:104DB000C8010E94862419821A821B821C82BE01AD
:104DC0006F5F7F4FC1010E94A6252DEC3CEC4CEC9F
:104DD0005CE3C701B6010F944F4A9B01AC01F80197
:104DE00060817181828193810F944F4A6D837E83AC
:104DF0008F839887D8019B968C919B978823C9F0C5
:104E00002AE939E949E95FE314966D917D918D9125
:104E10009C9117970F944F4A69837A838B839C8365
:104E2000BE016F5F7F4F8CE999E00E94A625F801D3
:104E300013A6BE016B5F7F4F89859A850E94A625C8
:104E400090CF2F923F924F925F926F927F928F926C
:104E50009F92AF92BF92CF92DF92EF92FF920F9309
:104E60001F93CF93DF93CDB7DEB768970FB6F89453
:104E7000DEBF0FBECDBFFB013081542F530F553025
:104E800008F00CC10181622F600F653008F006C187
:104E9000E02FF0E0E256F84FE081F0E0032E02C090
:104EA000F595E7950A94E2F7E0FFF8C0E62EF12CBD
:104EB000F701E256F84FE081F0E0252E312C02C0D8
:104EC000F595E7955A95E2F7E0FFE8C0122F742EAA
:104ED0006C01832F330F990B0E9412224B015C014E
:104EE000672D660F770B072E000C880B990B0F941C
:104EF000F0492B013C01AC019B01C501B4010F94A9
:104F0000B9506D877E878F87988BC1010E941222CE
:104F1000A30192010F94B85069837A838B839C8399
:104F2000802F000F990B0E94F7212B013C01612F6C
:104F3000660F770B072E000C880B990B0F94F04926
:104F40004B015C01AC019B01C301B2010F94B9504C
:104F5000698B7A8B8B8B9C8BC7010E94F721A501F3
:104F600094010F94B8506D837E838F839887F601E8
:104F700080859185A285B38589879A87AB87BC8711
:104F80008D8B9E8BAF8BB88F47E651E061E070E070
:104F9000CE0141960E94BA9B47E651E061E070E085
:104FA000CE0105960E94BA9B47E651E061E070E0B1
:104FB000CE010D960E94BA9B47E651E061E070E099
:104FC000CE0101960E94BA9B49885A886B887C88DA
:104FD00027E137EB41ED58EBC301B2010F941953B0
:104FE00087FD5CC023E030E044EB53E4C301B20131
:104FF0000F94E94918160CF451C04D845E846F84F7
:10500000788827E137EB41ED58EBC301B2010F94EB
:10501000195387FD43C023E030E044EB53E4C30160
:10502000B2010F94E9491816CCF14D805E806F8073
:10503000788427E137EB41ED58EBC301B2010F94BF
:10504000195387FD2BC023E030E044EB53E4C30148
:10505000B2010F94E94918160CF149805A806B800F
:105060007C8027E137EB41ED58EBC301B2010F948F
:10507000195387FD13C023E030E044EB53E4C30130
:10508000B2010F94E94918164CF0AE014F5F5F4F23
:10509000BE01635F7F4FC6010E94AF2568960FB6C1
:1050A000F894DEBF0FBECDBFDF91CF911F910F915E
:1050B000FF90EF90DF90CF90BF90AF909F908F9038
:1050C0007F906F905F904F903F902F9008950E9437
:1050D000E324CB0108950F931F93CF938091A807EA
:1050E0009091A9070097E9F0FC018F01C1912C2F45
:1050F0002F7D81F0C53411F0C536B9F7F801108263
:1051000070E060E00F947845F801C083CF911F9163
:105110000F91089570E060E0CF911F910F910D9471
:10512000784560E070E0CB01F1CF2FEB280F2A31FA
:1051300008F047C0E22FF0E08091770A9091780A5A
:10514000A091790AB0917A0A04C0B695A79597956F
:1051500087952A95D2F780FD02C081700895E75A9D
:10516000F54FE081EE2341F18091220B9091230BCA
:10517000E80FF92FF11D808190ED980F9A3030F0F3
:105180008E3251F4818180538A3098F4F093A907CC
:10519000E093A80781E008958D3211F08B3249F435
:1051A000818190ED980F9A3088F38E3211F48281CC
:1051B000EACFF0E0E0E0EACF1092A9071092A8074A
:1051C000E9CF80E008950E949528882341F081E08E
:1051D0002091A8073091A907232B09F480E00895B6
:1051E000CF92DF92EF92FF926A017B010E94E32847
:1051F000882331F0FF90EF90DF90CF900C946B28D4
:10520000C701B601FF90EF90DF90CF900895CF9344
:10521000DF93EB010E94E328882321F0DF91CF91F7
:105220000C946728CE01DF91CF910895CF93DF933F
:10523000EB010E94E328882319F00E94E324EB018C
:10524000CE01DF91CF910895CF93C62F0E94E3281E
:10525000882319F0CF910C94F3248C2FCF910895CB
:10526000CF93DF93C82FD62F0E94E328882321F005
:10527000DF91CF910C9407258C2F0E9495288111E6
:1052800001C08D2FDF91CF910895CF92DF92EF92E1
:10529000FF92CF936B017C01C42F8091EB088F5F4D
:1052A00009F4B5C08093EB088091EB0880939A09CC
:1052B00020E030E040E752E460912F02709130022C
:1052C00080913102909132020F944F4A0F942C52E8
:1052D0007093FD086093FC08C092FE08D092FF080E
:1052E000E0920009F092010980919909C0FB80F9D0
:1052F000809399098CE0EBE9F8E0A2E0B9E0019035
:105300000D928A95E1F78CE0E6ECFAE0AEE0B9E0C8
:1053100001900D928A95E1F78091C70790919909C4
:1053200080FB94F990939909882381F08091C307B9
:105330009091C407A091C507B091C60780931A0940
:1053400090931B09A0931C09B0931D09809120150F
:105350009091211590931F0980931E098091091542
:1053600090910A1590932109809320098091500B08
:1053700080932209809199099091620F90FB83F9A3
:10538000809399098091330B9091340BA091350B48
:10539000B091360B8093230990932409A09325099B
:1053A000B09326090E94E0D8609394097093950900
:1053B00080939609909397098091B80780939809F4
:1053C0009091030F8091990993FB81F99091D20AF2
:1053D00090FB82F98093990980E00E9499C140E096
:1053E00050E0BA0189E498E10E943D8B40EB50E027
:1053F0006BEE78E089E498E10E94D18B89E498E132
:10540000CF91FF90EF90DF90CF900C94FE8E81E0D3
:1054100049CF4F925F926F927F928F929F92AF92FD
:10542000BF92CF92DF92EF92FF921F93CF93DF93C1
:1054300000D01F92CDB7DEB719821A821B821C8260
:10544000CE0101964C018CE9C82E89E0D82E94E655
:10545000E92E92E0F92E23E3A22E20E1B22E10E0F5
:1054600088E5810F0E94E328F40181934F0188238E
:1054700009F4E7C00E946B282B013C01812F0E9498
:105480005821882309F4D3C0F7012081318142815A
:105490005381C301B2010F94B950F6016083718347
:1054A000828393831F5FF4E0CF0ED11C84E0E80E6B
:1054B000F11C94E0A90EB11C133091F685E40E9412
:1054C000E3288C83882309F4C7C00E946B286B01F2
:1054D0007C0183E00E945821882371F020917002A2
:1054E000309171024091720250917302C701B6016E
:1054F0000F94B9506B017C01C092A809D092A90900
:10550000E092AA09F092AB098091180F882391F1DB
:105510008091441882FF2EC087FD2CC08C81882387
:1055200049F18981811103C08A81882319F12DEC09
:105530003CEC4CE45DE36091F4087091F5088091D7
:10554000F6089091F7080F94B9509B01AC01609157
:105550006C0270916D0280916E0290916F020F94B7
:10556000195318163CF440E060E070E080E090E4ED
:105570000E94452940E050E0BA0186E40E94F028EC
:1055800020E030E0A9010F941953181684F40E940A
:105590006B2820E030E040E752E40F94B351609371
:1055A0002F027093300280933102909332028091E7
:1055B000030F83FD28C080918608882321F1209164
:1055C00070023091710240917202509173026091A9
:1055D000A8097091A9098091AA099091AB090F942B
:1055E000B8502091930830919408409195085091BB
:1055F00096080F94B9506093930870939408809321
:105600009508909396080F900F900F900F90DF9150
:10561000CF911F91FF90EF90DF90CF90BF90AF9010
:105620009F908F907F906F905F904F900895F501BD
:105630002081318142815381C301B2010F94B8505E
:105640002CCFF70180819181A281B381F601808303
:105650009183A283B38326CF8091700290917102CF
:10566000A0917202B09173028093A8099093A90946
:10567000A093AA09B093AB0947CFEBEEF8E080EB1B
:10568000DF011D928A95E9F708958091180F811125
:1056900004C00E943D2B0C9425C28091441882FFC7
:1056A00009C087FD07C040E060E070E080E090E462
:1056B0000C94452908958091EB08882361F090911E
:1056C0009A09891308C08091441884FF04C087E2B6
:1056D00099E00C94AE9280E00895FC0123812111A1
:1056E0000C94FE8E0895CF93DF93C0912015D09136
:1056F0002115209729F160911C1570911D1580913D
:105700001E1590911F150F9425526E5F7F4F2497A1
:105710006C177D07ACF470930908609308080E9429
:105720005D83605A75418F4F9F4F60930A08709355
:105730000B0880930C0890930D08DF91CF9108958A
:1057400010920A0810920B0810920C0810920D0883
:10575000F4CFCF92DF92EF92FF921F93CF93DF931C
:10576000182F662351F010929D07109299071092FE
:105770009A0710929B0710929C070E945D836B0111
:105780007C018091990790919A07A0919B07B09115
:105790009C07A7019601281B390B4A0B5B0BDA010A
:1057A000C901B7FD3DC020919D0717FD13C0412FD2
:1057B000012E000C550B4C5F5F4F822F022E000C08
:1057C000990B4817590764F184EF91E0A0E0B0E02D
:1057D000211724F488EE93E0A0E0B0E08C0D9D1D2D
:1057E000AE1DBF1D8093990790939A07A0939B07C6
:1057F000B0939C072170C22F30E0D32F84E28C9F9E
:10580000B0018D9F700D7C1B112460597C4F82E389
:1058100090E00E94FDDC80919D078F5F80939D0743
:10582000DF91CF911F91FF90EF90DF90CF9008957F
:10583000CF93DF93C0910915D0910A15209729F1D4
:1058400060910515709106158091071590910815C6
:105850000F9425526E5F7F4F24976C177D07ACF431
:1058600070930108609300080E945D83605E70443D
:105870008D4F9F4F60930208709303088093040834
:1058800090930508DF91CF9108951092020810922D
:1058900003081092040810920508F4CFCF93C1E0DA
:1058A00020E030E0A9016091E30A7091E40A809160
:1058B000E50A9091E60A0F94E949811101C0C0E020
:1058C0008C2FCF910895CF93C82F882321F00E9469
:1058D0004E2C8823D9F08091620F8C17B9F00E946A
:1058E0002EC88091620F882349F084E692E00E94DE
:1058F00051C81092620FCF910C9462D381E08093D3
:10590000620F84E692E00E945AC7F5CFCF910895C6
:105910004F925F926F927F928F929F92AF92BF92BF
:10592000CF92DF92EF92FF920F931F93CF93DF936B
:10593000EC012091DB0A3091DC0A4091DD0A5091A4
:10594000DE0A688179818A819B810F94B8506B014E
:105950007C012091DF0A3091E00A4091E10A5091E8
:10596000E20A6C817D818E819F810F94B8504B013A
:105970005C01A70196016091910770919207809157
:105980009307909194070F94E949882309F450C034
:10599000C0929107D0929207E0929307F0929407F9
:1059A0002091890730918A0740918B0750918C078D
:1059B000C701B6010F944F4A2B013C010F945B5273
:1059C0006B017C0120E030E0A9010F94E94987FDDB
:1059D00070C020E030E040E450E4C701B6010F940D
:1059E000195318162CF4C12CD12CC0E4EC2EFE2C2B
:1059F000A7019601C301B2010F94B85060938107CB
:105A0000709382078093830790938407C701B60140
:105A10000F94255260937F07062E000C770B6F5F63
:105A20007F4F6430710514F064E070E060937D078F
:105A3000D0917B0710917F07A50194016091950794
:105A40007091960780919707909198070F94E94974
:105A5000811133C0D11381C0209163073091640755
:105A600040916507509166076091810770918207A8
:105A700080918307909184070F944F4A2091670784
:105A8000309168074091690750916A070F94B950A7
:105A9000DF91CF911F910F91FF90EF90DF90CF900A
:105AA000BF90AF909F908F907F906F905F904F903E
:105AB0000895C12CD12C76019BCF809295079092AE
:105AC0009607A0929707B092980720918D07309182
:105AD0008E0740918F0750919007C501B4010F9434
